:020000040800F2
:100000000080012099300008B92F0008BB2F00089C
:10001000BD2F0008BF2F0008C12F000800000000FE
:10002000000000000000000000000000C32F0008D6
:10003000C52F000800000000C72F0008C92F0008C6
:10004000E9300008E9300008E9300008E93000082C
:10005000E9300008E9300008E9300008E93000081C
:10006000E9300008E9300008E9300008E93000080C
:10007000E9300008E9300008E9300008E9300008FC
:10008000E9300008E9300008E9300008000000000D
:10009000000000000000000000000000E93000083F
:1000A000E9300008E9300008E9300008E9300008CC
:1000B000E9300008E9300008E9300008E9300008BC
:1000C000E9300008E9300008E9300008E9300008AC
:1000D000E9300008E9300008E930000800000000BD
:1000E000D12F0008E9300008E930000800000000C6
:1000F000000000000000000000000000E9300008DF
:1001000000000000E9300008E9300008E93000088C
:1001100000000000000000000000000000000000DF
:10012000E930000831230008211D0008E9300008EB
:10013000E93000080000000000000000000000009E
:10014000000000000000000000000000E93000088E
:10015000E9300008E9300008E9300008E93000081B
:10016000E9300008E930000800000000000000004D
:10017000000000000000000000000000000000007F
:1001800000000000E930000800000000000000004E
:04019000E93000084A
:1001A00010B5054C237833B9044B13B10448AFF3B1
:1001B00000800123237010BD840000200000000097
:1001C000183F000808B5034B1BB103490348AFF3C0
:1001D000008008BD0000000088000020183F0008D3
:1001E00053B94AB9002908BF00281CBF4FF0FF319E
:1001F0004FF0FF3000F072B9ADF1080C6DE904CE9C
:1002000000F006F8DDF804E0DDE9022304B07047F1
:100210002DE9F047089E04468846002B4BD18A42C0
:10022000154667D9B2FA82F24AB1C2F1200701FA43
:1002300002F320FA07F7954047EA030894404FEA93
:10024000154E230CB8FBFEF71FFA85FC0EFB178832
:1002500043EA084307FB0CF1994209D9EB1807F16F
:10026000FF3080F01B81994240F21881023F2B44FD
:100270005B1AA4B2B3FBFEF00EFB103344EA034456
:1002800000FB0CFCA44509D92C1900F1FF3380F0C8
:100290000781A44540F2048102382C4440EA07401B
:1002A000A4EB0C0400271EB1D4400023C6E9004390
:1002B0003946BDE8F0878B4209D9002E00F0EB806B
:1002C0000027C6E9000138463946BDE8F087B3FA91
:1002D00083F7002F47D18B4202D3824200F2FA808B
:1002E000841A61EB030301209846002EE0D0C6E992
:1002F0000048DDE702B9FFDEB2FA82F2002A40F0E0
:100300008F80491B4FEA154E1FFA85F80127B1FB74
:10031000FEFC230C0EFB1C1143EA014308FB0CF10D
:10032000994207D9EB180CF1FF3002D2994200F242
:10033000CD808446591AA3B2B1FBFEF00EFB101417
:1003400043EA044408FB00F8A04507D92C1900F142
:10035000FF3302D2A04500F2B6801846A4EB080491
:1003600040EA0C409FE7C7F1200CBB4022FA0CFE8C
:100370004EEA030E01FA07F420FA0CF521FA0CF309
:100380004FEA1E482543B3FBF8F92C0C08FB193340
:100390001FFA8EFA44EA034309FB0AF49C4202FA6C
:1003A00007F200FA07F10BD91EEB030309F1FF3046
:1003B00080F087809C4240F28480A9F10209734456
:1003C0001B1BADB2B3FBF8F008FB103345EA034446
:1003D00000FB0AFAA24508D91EEB040400F1FF3322
:1003E0006BD2A24569D90238744440EA0940A0FBA7
:1003F0000289A4EB0A044C45C2464B4654D351D063
:10040000002E69D0B1EB0A0564EB030404FA0CFC7E
:10041000FD40FC404CEA0505C6E90054002747E7CB
:10042000C2F1200320FA03F7954001FA02F021FA05
:1004300003F34FEA154E3843010CB3FBFEF71FFAE6
:1004400085F80EFB173341EA034107FB08F38B42A3
:1004500004FA02F407D9691807F1FF3C2FD28B4246
:100460002DD9023F2944CB1A81B2B3FBFEF00EFB1B
:10047000103341EA034100FB08F38B4207D96918A6
:1004800000F1FF3C17D28B4215D902382944C91A12
:1004900040EA07473BE73746304609E70746E7E6C5
:1004A0001846FBE64145ABD2B8EB020A69EB0E02F7
:1004B00001381346A4E76046E9E7184695E7674622
:1004C000D1E781467CE702382C4447E7ACF1020CC7
:1004D0002B442FE7384608E73746E9E6704700BF68
:1004E00001F0FF01102A2BDB10F0070F08D010F8E5
:1004F000013B013A8B422DD010F0070F42B3F6D1E9
:10050000F0B441EA012141EA014122F007047FF001
:1005100000070023F0E80256083C85EA010586EA58
:10052000010685FA47F5A3FA87F586FA47F6A5FA94
:1005300087F68EB9EED1F0BC01F0FF0102F00702A0
:1005400032B110F8013B013A83EA010313B1F8D14B
:100550000020704701387047002D06BF354603382C
:10056000073815F0010F07D1013015F4807F02BF65
:10057000013015F4C03F0130F0BC0138704700BFB6
:1005800010B504460E4B18784FF47A73B3FBF0F3B2
:100590000C4A1068B0FBF3F000F0AAF868B90F2C11
:1005A00001D901200AE0002221464FF0FF3000F07F
:1005B0005DF8034B5C60002000E0012010BD00BF2F
:1005C000000000201C00002008B50B4B1A6842F404
:1005D00000721A601A6842F480621A601A6842F463
:1005E00080721A60032000F02FF80020FFF7C8FF88
:1005F00002F01AFC002008BD003C0240034A1168CA
:10060000034B1B780B441360704700BF740200203B
:1006100000000020014B1868704700BF74020020E2
:1006200038B50446FFF7F6FF0546B4F1FF3F02D0A8
:10063000044B1B781C44FFF7EDFF401BA042FAD38C
:1006400038BD00BF00000020074AD36823F4E063F0
:100650001B041B0C000200F4E060184340F0BF6074
:1006600040F40030D060704700ED00E030B4174B2C
:10067000DB68C3F30223C3F10704042C28BF04245E
:100680001D1D062D18D9033B4FF0FF3505FA04F464
:1006900021EA0401994005FA03F322EA030319430E
:1006A00000280BDB0901C9B200F1604000F5614090
:1006B00080F8001330BC70470023E5E700F00F001E
:1006C0000901C9B2024B1954F4E700BF00ED00E084
:1006D00014ED00E0002807DB00F01F0240090123B1
:1006E0009340024A42F82030704700BF00E100E02A
:1006F0000138B0F1807F0AD2064B5860064AF021DB
:1007000082F823100020986007221A6070470120A9
:10071000704700BF10E000E000ED00E00268D3B2D7
:10072000103B0B49A1FB03131B090A49C95CC165B6
:10073000032B06D822F47F7222F003028265806DBB
:10074000704722F47F7222F0030204328265F6E7DA
:10075000ABAAAAAA303F0008836A826992B9012B2A
:100760000AD01BB1022B01D000207047C36A13F0DE
:10077000807F2CD100207047C36AB3F1C07F28D09E
:1007800000207047B2F5005F05D0022B29D9032B5A
:1007900015D000207047032B03D8DFE803F01C04BA
:1007A0001C0A00207047C36A13F0807F15D1002017
:1007B0007047C36AB3F1C07F11D000207047C36A8D
:1007C00013F0807F01D00120704700207047012086
:1007D00070470120704701207047012070470120B9
:1007E000704701207047000070B50446FFF712FF04
:1007F000002C5BD00546002384F83430022384F8B3
:1008000035302268136823F00103136023681A68E7
:1008100012F0010F0AD0FFF7FDFE401B0528F5D9A5
:1008200020236365032084F8350070BD1A682048D2
:1008300010406168A2680A43E1680A4321690A43DB
:1008400061690A43A1690A43E1690A43216A0A43CB
:100850000243616A04291ED01A602668756925F072
:100860000705636A1D43042B07D1A36A1D43E36A8E
:100870001BB12046FFF770FF90B975612046FFF766
:100880004DFFE26D3F2393408360002060650123AC
:1008900084F83530C9E7E16A206B01430A43DBE79E
:1008A00040236365012084F83500BEE70120BCE7E2
:1008B0003F8010F000230F2B00F2C580F0B482B00F
:1008C00039E0042200E00022B2403A4302345E4E96
:1008D00046F824205D4A1468EA4302EA04064F6899
:1008E00017F4803F01D045EA0406584C266064683E
:1008F00002EA04064F6817F4003F01D045EA0406F7
:10090000524C6660A46802EA04064F6817F4801F20
:1009100001D045EA04064D4CA660E46822404E68CA
:1009200016F4001F01D045EA0402484CE26001338E
:100930000F2B00F2858001229A400C6804EA020520
:10094000AA42F4D14C68022C01D0122C10D1DE083E
:10095000083650F826C003F00704A7000F24BC4057
:100960002CEA040C0C69BC4044EA0C0440F8264014
:1009700004685F000326BE40F64306EA040C4C6898
:1009800004F00304BC4044EA0C0404604C6804F125
:10099000FF3CBCF1010F03D9112C01D0122C10D156
:1009A000846806EA040CCC68BC4044EA0C04846009
:1009B000446824EA02024C68C4F300149C401443C7
:1009C0004460C26816408A68BA403243C2604A68CE
:1009D00012F0805FABD0002201921D4A546C44F4A7
:1009E00080445464526C02F480420192019A9C0843
:1009F000A61C154A52F8267003F0030296000F2237
:100A0000B24027EA0207134A90423FF45CAF02F576
:100A1000806290420ED002F5806290420CD002F5C6
:100A2000806290420AD002F5806290423FF449AF62
:100A3000072249E7012247E7022245E7032243E76D
:100A400002B0F0BC7047704700380140003C0140E4
:100A5000003802400000024012B909048161704769
:100A60008161704708B5054B5B69034200D108BD41
:100A7000024B586102F012F8F9E700BF003C014058
:100A8000002800F0BB8170B582B00446036813F003
:100A9000010F3BD0A74B9B6803F00C03042B2CD019
:100AA000A44B9B6803F00C03082B21D06368B3F5BB
:100AB000803F4FD0B3F5A02F52D09E4B1A6822F43E
:100AC00080321A601A6822F480221A606368002B50
:100AD00050D0FFF79FFD0546964B1B6813F4003F6F
:100AE00014D1FFF797FD401B6428F5D903208AE154
:100AF000904B5B6813F4800FD8D08E4B1B6813F4B7
:100B0000003F03D06368002B00F07A81236813F064
:100B1000020F55D0874B9B6813F00C0F3ED0854BCE
:100B20009B6803F00C03082B33D0E368002B68D0DC
:100B3000814B01221A60FFF76DFD05467D4B1B6856
:100B400013F0020F54D1FFF765FD401B0228F5D9C1
:100B5000032058E1774A136843F480331360B5E704
:100B6000744B1A6842F480221A601A6842F4803288
:100B70001A60ABE7FFF74EFD05466E4B1B6813F49A
:100B8000003FC3D0FFF746FD401B6428F5D9032082
:100B900039E1684B5B6813F4800FC6D1654B1B6865
:100BA00013F0020F04D0E368012B01D001202AE1E9
:100BB000604A136823F0F803216943EAC103136014
:100BC000236813F0080F40D0636963B35B4B0122C5
:100BD0001A60FFF71FFD0546564B5B6F13F0020FBF
:100BE00033D1FFF717FD401B0228F5D903200AE196
:100BF000504A136823F0F803216943EAC1031360E4
:100C0000DEE74D4B00221A60FFF704FD0546494B15
:100C10001B6813F0020FD3D0FFF7FCFC401B022827
:100C2000F5D90320EFE0454B00221A60FFF7F2FCF4
:100C30000546404B5B6F13F0020F06D0FFF7EAFC4E
:100C4000401B0228F5D90320DDE0236813F0040FD0
:100C500079D0384B1B6C13F0805F33D100230193A4
:100C6000344B1A6C42F080521A641B6C03F08053B0
:100C70000193019B0125324B1B6813F4807F23D025
:100C8000A368012B34D0052B38D02A4B1A6F22F0E1
:100C900001021A671A6F22F004021A67A368002B78
:100CA00036D0FFF7B7FC0646224B1B6F13F0020F3E
:100CB00048D1FFF7AFFC801B41F288339842F3D94B
:100CC0000320A0E00025D6E71D4A136843F4807393
:100CD0001360FFF79FFC0646194B1B6813F4807FD7
:100CE000CED1FFF797FC801B0228F5D903208AE0BC
:100CF000104A136F43F001031367CFE70D4B1A6FD0
:100D000042F004021A671A6F42F001021A67C5E73F
:100D1000FFF780FC0646074B1B6F13F0020F11D044
:100D2000FFF778FC801B41F288339842F3D9032007
:100D300069E000BF0038024000004742800E474291
:100D400000700040E5B9A369002B5BD0304A92687F
:100D500002F00C02082A58D0022B17D02D4B00228B
:100D60001A60FFF757FC0446294B1B6813F0007FFD
:100D700042D0FFF74FFC001B0228F5D9032042E0C8
:100D8000234A136C23F080531364DCE7214B0022C9
:100D90001A60FFF73FFC05461D4B1B6813F0007FF0
:100DA00006D0FFF737FC401B0228F5D903202AE0C4
:100DB000E369226A1343626A43EA8213A26A520811
:100DC000013A43EA0243E26A43EA0263104A53608B
:100DD000104B01221A60FFF71DFC04460C4B1B68E8
:100DE00013F0007F06D1FFF715FC001B0228F5D990
:100DF000032008E0002006E0002004E00120704706
:100E0000012000E0002002B070BD0120FBE700BF20
:100E10000038024060004742324B9B6803F00C03ED
:100E2000042B5CD0082B01D02F4870472DE9F04BE4
:100E30002C4B5A6802F03F025B6813F4800F2BD0F2
:100E4000284B5B68C3F388131E4600275C0100250E
:100E5000E41A65EB0705A90141EA9461A001001BB2
:100E600061EB0501CB0043EA5073C400A01943EBCA
:100E700007014B0243EAD05344022046194600239F
:100E8000FFF7AEF9174B5B68C3F3014301335B0017
:100E9000B0FBF3F0BDE8F08B124B5B68C3F3881333
:100EA0001E4600275C010025E41A65EB0705A90131
:100EB00041EA9461A001001B61EB0501CB0043EA0C
:100EC0005073C400A01943EB07018B0243EA90530F
:100ED0008402204619460023FFF782F9D2E703482F
:100EE000704700BF003802400024F40000127A006E
:100EF000002800F09D8070B504464F4B1B6803F03E
:100F00000F038B4209D2CBB24B4A1370136803F024
:100F10000F038B4201D0012070BD236813F0020F34
:100F200017D013F0040F04D0444A936843F4E053FD
:100F30009360236813F0080F04D0404A936843F489
:100F4000604393603D4A936823F0F003A068034335
:100F500093600D46236813F0010F32D06368012BB4
:100F600021D09A1E012A25D9344A126812F0020FA4
:100F700060D032498A6822F0030213438B60FFF786
:100F800049FB06462D4B9B6803F00C036268B3EBEC
:100F9000820F16D0FFF73EFB801B41F28833984248
:100FA000F0D90320B8E7254A126812F4003FE0D1D7
:100FB0000120B1E7214A126812F0007FD9D1012047
:100FC000AAE71D4B1B6803F00F03AB4209D9EAB235
:100FD000194B1A701B6803F00F03AB4201D00120BC
:100FE0009AE7236813F0040F06D0144A936823F499
:100FF000E053E1680B439360236813F0080F07D0B8
:101000000E4A936823F46043216943EAC103936065
:10101000FFF702FF094B9B68C3F30313084AD35C35
:10102000D840084B18600020FFF7AAFA002073E7A9
:101030000120704701206FE7003C02400038024069
:10104000383F00081C000020014B1868704700BFA3
:101050001C00002008B5FFF7F7FF044B9B68C3F3A3
:101060008223034AD35CD84008BD00BF0038024049
:10107000483F000808B5FFF7E7FF044B9B68C3F340
:101080004233034AD35CD84008BD00BF0038024059
:10109000483F000810B4036A046A24F001040462A3
:1010A000846924F0F00444EA021223F00A030B439B
:1010B000826103625DF8044B704710B4036A23F049
:1010C000100303628469036A24F4704444EA023220
:1010D00023F0A00343EA0113826103625DF8044B2D
:1010E0007047836823F07003194341F00701816062
:1010F000704700000368254A90420ED0B0F1804F3F
:101100000BD0A2F57C42904207D002F5806290425B
:1011100003D002F58062904203D123F070034A6845
:1011200013431A4A90421AD0B0F1804F17D0A2F55B
:101130007C42904213D002F5806290420FD002F5BB
:10114000806290420BD002F59A32904207D002F5AD
:101150008062904203D002F58062904203D123F472
:101160004073CA68134323F080034A691343036042
:101170008B68C3620B688362044B984202D00123E0
:10118000436170470B690363F9E700BF000001404A
:10119000A8B110B5044690F83D305BB1022384F845
:1011A0003D30211D2068FFF7A5FF012384F83D3065
:1011B000002010BD80F83C3001F056FEEEE7012023
:1011C000704710B4846824F47F4442EA03230B433D
:1011D000234383605DF8044B704790F83C30012B4B
:1011E00066D010B50446012380F83C30022380F815
:1011F0003D300268936823F47F4323F077039360C4
:101200000B68402B4AD013D9602B3DD01ED9702BD0
:1012100028D0B3F5005F30D1CB684A688968006890
:10122000FFF7CFFF2268936843F48043936024E084
:10123000102B06D004D9202B03D0302B01D01CE07A
:10124000DBB919462068FFF74CFF16E0502B14D18C
:10125000CA6849680068FFF71DFF50212068FFF742
:1012600040FF0AE0CB684A6889680068FFF7A9FF79
:101270002268936843F077039360012384F83D303C
:10128000002084F83C0010BDCA6849680068FFF778
:1012900014FF60212068FFF724FFEEE7CA68496861
:1012A0000068FFF7F7FE40212068FFF71AFFE4E728
:1012B0000220704710B401F01F01012303FA01F46A
:1012C000036A23EA04030362036A8A401343036246
:1012D0005DF8044B704790F83C30012B1CD070B483
:1012E000012680F83C60022380F83D300268556892
:1012F000936825F070050C682C4323F080054B683B
:101300002B4354600268936080F83D60002380F8AE
:101310003C30184670BC7047022070472DE9F843F6
:1013200004460268136923F44053C1680B431361F8
:1013300083680269134342691343C2691A4301680F
:10134000CB6823F4164323F00C031343CB600268ED
:10135000536923F4407381690B435361C369B3F547
:10136000004F60D00368B84A934200F0148102F540
:101370008062934200F00F81FFF76CFE00EB80006B
:1013800000EB80006568AD00B0FBF5F5AF4FA7FB43
:1013900005356D092E01FFF75DFE00EB800000EBC7
:1013A00080006568AD00B0FBF5F9FFF753FE00EB78
:1013B000800000EB80006568AD00B0FBF5F5A7FB91
:1013C00005356D094FF0640808FB15952D01323580
:1013D000A7FB05356D0905F0F0053544FFF73AFE2A
:1013E00000EB800000EB80006668B600B0FBF6F60C
:1013F000FFF730FE00EB800000EB800063689B008D
:10140000B0FBF3F0A7FB0030400908FB10684FEA7F
:10141000081808F13208A7FB0837C7F343172368F9
:101420002F449F600DE10368874A93425BD002F529
:101430008062934257D0FFF70DFE00EB800000EB77
:10144000800065686D00B0FBF5F5804FA7FB0535A2
:101450006D092E01FFF7FEFD00EB800000EB800020
:1014600065686D00B0FBF5F9FFF7F4FD00EB800057
:1014700000EB800065686D00B0FBF5F5A7FB053556
:101480006D094FF0640808FB1595ED003235A7FB98
:1014900005356D096D0005F4F8753544FFF7DAFD83
:1014A00000EB800000EB800066687600B0FBF6F68B
:1014B000FFF7D0FD00EB800000EB800063685B006D
:1014C000B0FBF3F3A7FB03235B0908FB13684FEAA8
:1014D000C80808F13208A7FB0837C7F3421723688A
:1014E0002F449F60ADE0FFF7C5FD00EB800000EBEF
:1014F000800065686D00B0FBF5F5544FA7FB05351E
:101500006D092E01FFF7B6FD00EB800000EB8000B7
:1015100065686D00B0FBF5F9FFF7ACFD00EB8000EE
:1015200000EB800065686D00B0FBF5F5A7FB0535A5
:101530006D094FF0640808FB1595ED003235A7FBE7
:1015400005356D096D0005F4F8753544FFF792FD1A
:1015500000EB800000EB800066687600B0FBF6F6DA
:10156000FFF788FD00EB800000EB800063685B0004
:10157000B0FBF3F3A7FB03235B0908FB13684FEAF7
:10158000C80808F13208A7FB0837C7F342172368D9
:101590002F449F6055E0FFF76DFD00EB800000EBEE
:1015A00080006568AD00B0FBF5F5284FA7FB053559
:1015B0006D092E01FFF75EFD00EB800000EB80005F
:1015C0006568AD00B0FBF5F9FFF754FD00EB800056
:1015D00000EB80006568AD00B0FBF5F5A7FB0535B5
:1015E0006D094FF0640808FB15952D013235A7FBF6
:1015F00005356D0905F0F0053544FFF73BFD00EBBF
:10160000800000EB80006668B600B0FBF6F6FFF7DE
:1016100031FD00EB800000EB800063689B00B0FBB5
:10162000F3F0A7FB0030400908FB10684FEA0818E8
:1016300008F13208A7FB0837C7F3431723682F4484
:101640009F60BDE8F88300BF001001401F85EB518B
:101650002DE9F04105460F4616469846069C2B6834
:101660001B6837EA03030CBF01230023B3421DD1DB
:10167000B4F1FF3FF3D02CB1FEF7CCFFA0EB080094
:10168000A042ECD92A68D36823F4D073D3602A68C7
:10169000536923F001035361202385F8393085F81D
:1016A0003A30002385F83830032000E00020BDE800
:1016B000F08158B310B5044690F839300BB32423A9
:1016C00084F839302268D36823F40053D36020466D
:1016D000FFF724FE2268136923F490431361226804
:1016E000536923F02A0353612268D36843F40053FB
:1016F000D3600020E063202384F8393084F83A3046
:1017000010BD80F8383001F0C7FBD8E701207047E2
:101710002DE9F04182B01E4690F83930DBB2202B23
:1017200055D104460D469046002955D0002A55D083
:1017300090F83830012B53D0012380F83830002343
:10174000C363212380F83930FEF764FF0746A4F80D
:101750002480A4F8268010E000963B4600228021D9
:101760002046FFF775FF00283CD12B882268C3F381
:10177000080353602369C3B90235E38C9BB2B3B14C
:10178000E38C013B9BB2E384A368B3F5805FE3D0B5
:1017900000963B46002280212046FFF759FF18BBE8
:1017A0002A7823685A600135E7E70135E5E70096B6
:1017B0003B46002240212046FFF74AFF0346A8B9D6
:1017C000202284F83920002284F8382000E0022307
:1017D000184602B0BDE8F0810123F9E70123F7E7DD
:1017E0000223F5E70323F3E70323F1E70323EFE7FE
:1017F000F0B41C4BDE6A456A1035027B437B1A4409
:101800000132194C27683B6843F010033B6027689E
:101810003B6843F004033B6023685A609D60D960D5
:101820001A6842F001021A60236E5B8C012B04D00F
:1018300090F82C30DBB2102B08D00A494B6A03EB2E
:101840005603B3FBF6F206FB12368E63064B5B6E55
:10185000DA6842F48062DA601A6842F001021A60C3
:10186000F0BC704700000140A0000020F0B4047BF1
:10187000458A837B93B100273B462FE05E1C2F04F3
:1018800042F826700133A3420AD241FA03F616F059
:10189000010FF3D05E1C42F82650F3E70023F2E775
:1018A0000027837B012B2AD0022B04D117F0010FD4
:1018B00021D142F824502B041360437B012B28D004
:1018C000631C42F82350023442F82450F0BC7047A5
:1018D0005E1C4FEA054C42F826C00133661E9E424C
:1018E000DFD941FA03F616F0010FF1D05E1C42F881
:1018F00026500137F1E72B0442F82430DBE717F0DC
:10190000010F03D12B0442F82430D4E742F82450CD
:10191000D1E7013442F82450D8E7000030B4184B26
:101920001B6E5B8B13F0010F28D1164D836A03F1F8
:101930001804027B437B1A4401321149D1F8043167
:101940005A609C60DD601A6842F010021A60D1F89B
:101950000421136843F004031360D1F804211368D1
:1019600043F0010313604B6EDA6842F40072DA60F0
:101970001A6842F001021A6030BC7047024DD5E788
:10198000A0000020740100204401002038B5214C43
:10199000236E0122598A986AFFF75EF84FF0406380
:1019A000C4F808314023C4F80C310023C4F81031C6
:1019B0004FF48062C4F814214FF48052C4F8182107
:1019C0004FF48042C4F81C21C4F820314FF4403257
:1019D000C4F82421C4F828310325C4F82C51C4F8D4
:1019E0003031C4F834310C4BC4F8043104F5827042
:1019F000C4F8880004F16403C4F83C31FEF7F4FE37
:101A00002A4629463920FEF731FE3920FEF762FECC
:101A100038BD00BFA00000202864024010B5154862
:101A20004FF04063436000248460C4604FF48063DF
:101A300003614FF4805343614FF480438361C46179
:101A40004FF440330362446203238362C46204633D
:101A5000094B0360C0F88C0000F164038363FEF758
:101A6000C3FE012221463A20FEF700FE3A20FEF78F
:101A700031FE10BDA00000204064024070B5044655
:101A8000FFF7CAF90646FFF7F5FAB6FBF0F6FFF7DF
:101A9000C3F90546FFF7EEFAB5FBF0F0022818BFD0
:101AA000012E1AD1FFF7B8F9A368B0FBF3F3013B9D
:101AB0001148124A42660367002383664367C36680
:101AC0006430FFF765FB2379022B0ED0012B0FD07A
:101AD000FFF75CFFFFF7A2FF70BDFFF7CBFA4300F3
:101AE000A068B3FBF0F3013BE2E7FFF74FFFF3E73A
:101AF000FFF794FFF0E700BFA000002000000140C6
:101B0000B0B110B5044690F82C3073B1094B1C6687
:101B1000022384F82C302046FFF7B0FF002084F821
:101B20002D00012384F82C3010BD01F0EBF9EDE716
:101B300001207047A000002090F82C30DBB2012B70
:101B400001D0082B41D1002941D0002A41D070B5E5
:101B50000283416101234383002380F82D3090F8F4
:101B60002C30DBB2082B14D0042380F82C3016461E
:101B70000D460446184BD3F88830184ADA63184AE1
:101B8000DA64438B012B08D0638B012B12D0002029
:101B900070BD102380F82C30E9E7124A0978FFF76E
:101BA00065FE012200211048FFF784FB2046FFF765
:101BB000B5FEE9E7B34201D30020E9E70B4AE95C4F
:101BC0002046FFF753FE0020E2E702207047012085
:101BD00070470120704700BFA00000206D1C000866
:101BE000FD1C000844010020000001407401002099
:101BF00008B590F82C30DBB2012B01D0042B22D198
:101C000019B322B3C161028401234384002380F805
:101C10002D3090F82C30DBB2042B10D0082380F844
:101C20002C300C4BD3F88C300B4ADA630B4ADA6455
:101C3000012204210A48FFF73DFB002004E01023A5
:101C400080F82C30EDE7022008BD0120FCE70120E0
:101C5000FAE700BFA0000020212A0008FD1C0008B0
:101C600000000140012380F82C30704708B51C4B60
:101C7000186E438B01339BB24383028B93421AD974
:101C8000174BD3F888301A68136823F010031360D9
:101C9000037843F0020303700023438380F82D3060
:101CA00090F82C30DBB2102B15D0012380F82C30AB
:101CB00000F0AEFF08BDFFF731FE094B186E438BF5
:101CC00013F0010F05D0074A4169C95CFFF7CEFD4B
:101CD000F0E7054AF8E7082380F82C30E8E700BF72
:101CE000A0000020740100204401002008B5024833
:101CF00001F02EFA08BD00BF503F000808B5074BA1
:101D0000186E037843F00403037090F82D3043F00D
:101D1000010380F82D30FFF7E9FF08BDA000002087
:101D200008B5B4490A6E538C01335384B248036832
:101D3000128A13430360D1F88C301B68AF4A934278
:101D400040F2A180583A5268AD498B4231D001F53A
:101D500080618B427CD0A1F568718B427AD001F50D
:101D600080618B4278D0A1F589618B4276D001F5F4
:101D700080618B4275D0A1F568718B4274D001F5FA
:101D800080618B4273D0A1F589618B4272D001F5DD
:101D900080618B4271D0A1F568718B4270D001F5E2
:101DA00080618B4202D04FF0007303E04FF40023B8
:101DB00000E008231A4214BF01230023002B40F047
:101DC0007D818C4BD3F88C301B688C4A934240F257
:101DD000A081A2F58962934200F0778102F58062CA
:101DE000934200F07B81A2F56872934200F0788103
:101DF00002F58062934200F07581A2F589629342F8
:101E000000F0728102F58062934200F07081A2F5C9
:101E10006872934200F06E8102F58062934200F096
:101E20006C81A2F58962934200F06A8102F58062BA
:101E3000934200F06881A2F56872934200F06681D7
:101E400002F58062934200F03D814FF000623DE177
:101E50000823AFE70823ADE70823ABE74FF400738F
:101E6000A8E74FF40073A5E74FF40073A2E74FF41F
:101E700000739FE74FF400239CE74FF4002399E79A
:101E80004FF4002396E75F4A934258D902F5527205
:101E900012685B498B4231D001F580618B4233D0AF
:101EA000A1F568718B4231D001F580618B422FD052
:101EB000A1F589618B422DD001F580618B422CD038
:101EC000A1F568718B422BD001F580618B422AD03D
:101ED000A1F589618B4229D001F580618B4228D020
:101EE000A1F568718B4227D001F580618B4202D049
:101EF0004FF0007303E04FF4002300E008231A4280
:101F000014BF0123002359E70823F8E70823F6E765
:101F10000823F4E74FF40073F1E74FF40073EEE7A2
:101F20004FF40073EBE74FF40073E8E74FF400233E
:101F3000E5E74FF40023E2E74FF40023DFE7324AFE
:101F4000934263D9583A52682D498B4231D001F5FA
:101F500080618B4233D0A1F568718B4231D001F59D
:101F600080618B422FD0A1F589618B422DD001F584
:101F700080618B422CD0A1F568718B422BD001F58A
:101F800080618B422AD0A1F589618B4229D001F56D
:101F900080618B4228D0A1F568718B4227D001F572
:101FA00080618B4202D04FF0007303E04FF40023B6
:101FB00000E008231A4214BF01230023FEE6082391
:101FC000F8E70823F6E70823F4E74FF40073F1E796
:101FD0004FF40073EEE74FF40073EBE74FF4007338
:101FE000E8E74FF40023E5E74FF40023E2E74FF47E
:101FF0000023DFE7A0000020003C014058640240BD
:1020000010600240B860024058600240BA4A12684C
:10201000BA498B4231D001F580618B4233D0A1F5B2
:1020200068718B4231D001F580618B422FD0A1F5D0
:1020300089618B422DD001F580618B422CD0A1F5B6
:1020400068718B422BD001F580618B422AD0A1F5BB
:1020500089618B4229D001F580618B4228D0A1F59E
:1020600068718B4227D001F580618B4202D04FF01E
:10207000007303E04FF4002300E008231A4214BF6A
:10208000012300239AE60823F8E70823F6E708234C
:10209000F4E74FF40073F1E74FF40073EEE74FF409
:1020A0000073EBE74FF40073E8E74FF40023E5E734
:1020B0004FF40023E2E74FF40023DFE79048FFF7F7
:1020C0001DFE7EE64FF4001200E020228D4BDA6008
:1020D0008B4BD3F88C00C36B984708BD2022F5E7E3
:1020E0002022F3E72022F1E74FF40062EEE74FF4FD
:1020F0000062EBE74FF40062E8E74FF40062E5E7C7
:102100004FF40012E2E74FF40012DFE74FF4001241
:10211000DCE77D4A934253D9A83A934231D002F585
:102120008062934231D0A2F5687293422FD002F5BB
:10213000806293422DD0A2F5896293422BD002F5A2
:10214000806293422AD0A2F56872934229D002F5A8
:102150008062934228D0A2F58962934227D002F58B
:102160008062934226D0A2F56872934225D002F590
:102170008062934202D04FF0006203E04FF40012FD
:1021800000E020225F4B9A60A2E72022FAE720229B
:10219000F8E72022F6E74FF40062F3E74FF400621D
:1021A000F0E74FF40062EDE74FF40062EAE74FF426
:1021B0000012E7E74FF40012E4E74FF40012E1E702
:1021C000524A934253D9483A934231D002F5806241
:1021D000934231D0A2F5687293422FD002F580620B
:1021E00093422DD0A2F5896293422BD002F58062F2
:1021F00093422AD0A2F56872934229D002F58062F8
:10220000934228D0A2F58962934227D002F58062DA
:10221000934226D0A2F56872934225D002F58062DF
:10222000934202D04FF0006203E04FF4001200E04E
:102230002022314BDA604BE72022FAE72022F8E730
:102240002022F6E74FF40062F3E74FF40062F0E774
:102250004FF40062EDE74FF40062EAE74FF400123A
:10226000E7E74FF40012E4E74FF40012E1E7234AF6
:10227000934231D002F58062934231D0A2F5687268
:1022800093422FD002F5806293422DD0A2F589624D
:1022900093422BD002F5806293422AD0A2F5687255
:1022A000934235D002F58062934234D0A2F5896220
:1022B000934233D002F58062934232D0A2F5687225
:1022C000934231D002F58062934202D04FF0006217
:1022D00003E04FF4001200E02022074B9A60F7E67B
:1022E0002022FAE72022F8E72022F6E74FF40062E6
:1022F000F3E74FF40062F0E7006002401060024034
:10230000A000002000640240B86002405860024013
:102310004FF40062E1E74FF40062DEE74FF4001291
:10232000DBE74FF40012D8E74FF40012D5E700BF07
:1023300008B5B04BD3F888301B68AF4A934240F2DF
:10234000A180583A5268AD498B4231D001F5806185
:102350008B427CD0A1F568718B427AD001F5806107
:102360008B4278D0A1F589618B4276D001F58061EE
:102370008B4275D0A1F568718B4274D001F58061F4
:102380008B4273D0A1F589618B4272D001F58061D7
:102390008B4271D0A1F568718B4270D001F58061DC
:1023A0008B4202D04FF0007303E04FF4002300E0B3
:1023B00008231A4214BF01230023002B40F07C8124
:1023C0008C4BD3F888301B688B4A934240F29F8134
:1023D000A2F58962934200F0768102F58062934211
:1023E00000F07A81A2F56872934200F0778102F5DD
:1023F0008062934200F07481A2F58962934200F0FA
:10240000718102F58062934200F06F81A2F56872DB
:10241000934200F06D8102F58062934200F06B817F
:10242000A2F58962934200F0698102F580629342CD
:1024300000F06781A2F56872934200F0658102F5B1
:102440008062934200F03C814FF000623CE108233F
:10245000AFE70823ADE70823ABE74FF40073A8E725
:102460004FF40073A5E74FF40073A2E74FF4007335
:102470009FE74FF400239CE74FF4002399E74FF4C4
:10248000002396E75E4A934258D902F552721268C9
:102490005A498B4231D001F580618B4233D0A1F58E
:1024A00068718B4231D001F580618B422FD0A1F54C
:1024B00089618B422DD001F580618B422CD0A1F532
:1024C00068718B422BD001F580618B422AD0A1F537
:1024D00089618B4229D001F580618B4228D0A1F51A
:1024E00068718B4227D001F580618B4202D04FF09A
:1024F000007303E04FF4002300E008231A4214BFE6
:102500000123002359E70823F8E70823F6E7082307
:10251000F4E74FF40073F1E74FF40073EEE74FF484
:102520000073EBE74FF40073E8E74FF40023E5E7AF
:102530004FF40023E2E74FF40023DFE7314A9342F0
:1025400062D9583A52682D498B4231D001F58061E9
:102550008B4233D0A1F568718B4231D001F5806197
:102560008B422FD0A1F589618B422DD001F580617E
:102570008B422CD0A1F568718B422BD001F5806184
:102580008B422AD0A1F589618B4229D001F5806167
:102590008B4228D0A1F568718B4227D001F580616C
:1025A0008B4202D04FF0007303E04FF4002300E0B1
:1025B00008231A4214BF01230023FEE60823F8E78C
:1025C0000823F6E70823F4E74FF40073F1E74FF42C
:1025D0000073EEE74FF40073EBE74FF40073E8E7A6
:1025E0004FF40023E5E74FF40023E2E74FF4002324
:1025F000DFE700BFA00000205864024010600240E6
:10260000B860024058600240BA4A1268BA498B4228
:1026100031D001F580618B4233D0A1F568718B42D6
:1026200031D001F580618B422FD0A1F589618B42B9
:102630002DD001F580618B422CD0A1F568718B42C1
:102640002BD001F580618B422AD0A1F589618B42A4
:1026500029D001F580618B4228D0A1F568718B42A9
:1026600027D001F580618B4202D04FF0007303E068
:102670004FF4002300E008231A4214BF0123002373
:102680009BE60823F8E70823F6E70823F4E74FF46E
:102690000073F1E74FF40073EEE74FF40073EBE7DC
:1026A0004FF40073E8E74FF40023E5E74FF400230D
:1026B000E2E74FF40023DFE79048FFF71FFB7FE6D8
:1026C0004FF4001200E020228D4BDA608D4BD3F8DE
:1026D0008800C36B984708BD2022F5E72022F3E766
:1026E0002022F1E74FF40062EEE74FF40062EBE7DF
:1026F0004FF40062E8E74FF40062E5E74FF40012A0
:10270000E2E74FF40012DFE74FF40012DCE77E4A05
:10271000934253D9A83A934231D002F58062934252
:1027200031D0A2F5687293422FD002F580629342B5
:102730002DD0A2F5896293422BD002F5806293429C
:102740002AD0A2F56872934229D002F580629342A2
:1027500028D0A2F58962934227D002F58062934285
:1027600026D0A2F56872934225D002F5806293428A
:1027700002D04FF0006203E04FF4001200E020228C
:102780005F4B9A60A2E72022FAE72022F8E7202296
:10279000F6E74FF40062F3E74FF40062F0E74FF41E
:1027A0000062EDE74FF40062EAE74FF40012E7E75A
:1027B0004FF40012E4E74FF40012E1E7534A93426A
:1027C00053D9483A934231D002F58062934231D0D6
:1027D000A2F5687293422FD002F5806293422DD009
:1027E000A2F5896293422BD002F5806293422AD0EF
:1027F000A2F56872934229D002F58062934228D0F4
:10280000A2F58962934227D002F58062934226D0D6
:10281000A2F56872934225D002F58062934202D0FD
:102820004FF0006203E04FF4001200E02022314B31
:10283000DA604BE72022FAE72022F8E72022F6E7C9
:102840004FF40062F3E74FF40062F0E74FF40062E8
:10285000EDE74FF40062EAE74FF40012E7E74FF4C8
:102860000012E4E74FF40012E1E7234A934231D02B
:1028700002F58062934231D0A2F5687293422FD064
:1028800002F5806293422DD0A2F5896293422BD04B
:1028900002F5806293422AD0A2F56872934237D043
:1028A00002F58062934236D0A2F58962934235D018
:1028B00002F58062934234D0A2F56872934233D01D
:1028C00002F58062934202D04FF0006203E04FF4C1
:1028D000001200E02022074B9A60F7E62022FAE778
:1028E0002022F8E72022F6E74FF40062F3E74FF4E6
:1028F0000062F0E70060024010600240A401002086
:1029000000640240A0000020B8600240586002400D
:102910004FF40062DFE74FF40062DCE74FF400128F
:10292000D9E74FF40012D6E74FF40012D3E700BF07
:102930002DE9F04104460E46904690F80EC0BCF1D9
:10294000000F0CD0057B013D237B013356F823306B
:10295000208A30EA030304D100273B461CE0057BB4
:10296000F2E72D4B1A6E137843F00403137094F8BA
:102970002D3043F0010384F82D30284A136823F0EA
:10298000080313602046FFF7B1F94FF000085FFA23
:1029900088F0BDE8F0810B46AB420ED2591C56F8C8
:1029A000212030EA0202F6D1012202FA03F343EABF
:1029B00008025FFA82F80137EDE7BCF1020F19D087
:1029C000A37B012BE3D117F0010FE0D0013556F8BE
:1029D0002520238A9343DAD0237843F00803237019
:1029E00094F82D3043F0040384F82D302046FFF78F
:1029F0007DF9CCE717F0010FE2D16B1C56F82330BC
:102A000030EA0303DCD0237843F008032370204628
:102A1000FFF76CF9D4E700BFA0000020003C0140A4
:102A200038B51A4B1B6E598C1A8C914226D918490D
:102A30000A681B8A22EA03030B60144B186E438C4E
:102A400013F0010F1BD11349C5699C1E0022FFF72B
:102A50006FFF28550D4B186E037843F00103037088
:102A60000023438480F82D3090F82C30DBB2102BFB
:102A700007D0012380F82C3000F0C2F838BD064999
:102A8000E2E7042380F82C30F6E700BFA000002026
:102A9000003C0140040200203402002070B5134ABB
:102AA00013681349086E018A23EA01031360438CFB
:102AB00013F0010F13D00E4C04F5B27104F5CA7473
:102AC000FEF796FE0A4B186E438C012B06D9C66999
:102AD0009D1E00222146FFF72BFF705570BD044C50
:102AE00004F5CA7104F5B274EAE700BF003C014086
:102AF000A0000020F0B58BB0002405940694079444
:102B0000089409940194334B1A6B42F004021A633F
:102B10001A6B02F004020192019A02941A6B42F0BD
:102B200080021A631A6B02F080020292029A0394E6
:102B30001A6B42F001021A631A6B02F0010203924F
:102B4000039A04941A6B42F002021A631B6B03F09F
:102B500002030493049B204F224620213846FDF7B0
:102B60007BFF1E4D22464FF480612846FDF774FF1F
:102B70004FF4005305931A4B0693079405A9284672
:102B8000FDF798FE202305930126069607940894E6
:102B900005A93846FDF78EFE80230593114B069359
:102BA000079405A92846FDF785FE4FF400730593A9
:102BB0000694079405A92846FDF77CFE4FF4806330
:102BC000059306960794089405A92846FDF772FE1A
:102BD0000BB0F0BD00380240000002400008024087
:102BE000000021100000111010B514464FF47A7344
:102BF00092B20248FEF78CFD204610BDFC02002078
:102C000008B5024800F0A4FA08BD00BF703F0008F4
:102C100008B5024800F09CFA08BD00BF803F0008DC
:102C200008B5024800F094FA08BD00BF903F0008C4
:102C300008B50A480A4B03604FF41653436000235B
:102C40008360C36003610C2242618361C361FEF74C
:102C500030FD00B908BDFFF7E3FFFBE7FC020020F1
:102C60000044004000B587B000230293039304930F
:102C70000593009301931448144A026043608360F3
:102C8000C360036143618361FEF782FA98B906A9C4
:102C90004FF4805341F8103D0B48FEF79EFA68B997
:102CA00000230093019369460748FEF714FB40B9DF
:102CB00007B05DF804FBFFF7B3FFE8E7FFF7B0FFED
:102CC000EEE7FFF7ADFFF3E7A802002000000140A8
:102CD00000B595B03022002108A800F031FA002399
:102CE000039304930593069307930193204A116C71
:102CF00041F080511164126C02F080520192019AED
:102D000002931C490A6822F4404242F400420A60DD
:102D10000A6802F440420292029A022108910122BA
:102D20000B9210220C920E910F9310924FF4A873F5
:102D30001193042312930723139308A8FDF7A0FE11
:102D400080B90F23039302210491002305934FF4CC
:102D500080520692079303A8FEF7CAF828B915B067
:102D60005DF804FBFFF75CFFEBE7FFF759FFF6E7C1
:102D7000003802400070004008B5FDF725FCFFF761
:102D8000A7FFFFF7B7FEFFF753FFFFF76BFF214CDD
:102D9000204600F0B7F8032323714FF41653A360C5
:102DA000012363730023A373082323732046FEF7D4
:102DB000A7FE08B1FFF734FF174800F0C9F917E084
:102DC000FFF72EFF1BE0134B1B7813F0020FFAD016
:102DD000104B1B7813F0010FFAD01049104800F087
:102DE000B7F90C48FEF73EFF4FF47A70FDF718FC78
:102DF00011220A490748FEF7FBFE0028E0D1112204
:102E000008490448FEF798FE0028DCD0FFF708FFC9
:102E1000D9E700BF78020020A03F0008E8020020A8
:102E2000AC3F00080800002000B583B000210091ED
:102E30000C4B5A6C42F480425A645A6C02F4804241
:102E40000092009A01911A6C42F080521A641B6C35
:102E500003F080530193019B0720FDF7F5FB03B0BE
:102E60005DF804FB003802400268094B9A4200D02A
:102E7000704782B000230193064B5A6C42F0010266
:102E80005A645B6C03F001030193019B02B070472D
:102E9000000001400038024000B589B000230393D0
:102EA00004930593069307930268144B9A4202D049
:102EB00009B05DF804FB0021019103F5FA331A6CA7
:102EC00042F400321A641A6C02F400320192019A40
:102ED00002911A6B42F001021A631B6B03F00103AB
:102EE0000293029B0C23039302230493072307936B
:102EF00003A90348FDF7DEFCDAE700BF0044004009
:102F00000000024070B58AB000240194264B5A6C30
:102F100042F001025A645A6C02F001020192019AD5
:102F200002941A6B42F480021A631A6B02F4800254
:102F30000292029A03941A6B42F004021A631A6B0B
:102F400002F004020392039A04941A6B42F0040202
:102F50001A631B6B03F004030493049B134B144D7F
:102F60009D625D624FF400661E824FF480625A8259
:102F700005920123069307940323089305A9284685
:102F8000FDF798FC0B4B0693059605A92846FDF71F
:102F900091FC224621462820FDF768FB2820FDF7FA
:102FA00099FB0AB070BD00BF0038024078020020D3
:102FB00000080240000021107047FEE7FEE7FEE730
:102FC000FEE770477047704708B5FDF717FB08BD6F
:102FD00008B54FF40060FDF745FD08BD70B50D461E
:102FE0001646002404E0AFF3008028700134013558
:102FF000B442F8DB304670BD08B503460B4A126890
:1030000042B10A4A106803446A46934206D8074A06
:10301000136008BD054A06491160F2E700F066F842
:103020000C2303604FF0FF30F3E700BF6402002081
:10303000400300204FF0FF3070474FF400534B60C7
:103040000020704701207047002070470F49D1F8D9
:10305000883043F47003C1F888300D4B1A6842F091
:1030600001021A60002098601A6822F0847222F42B
:1030700080321A60074A5A601A6822F480221A6065
:10308000D8604FF000638B60704700BF00ED00E038
:103090000038024010300024DFF834D0002103E073
:1030A0000C4B5B58435004310B480C4B42189A426E
:1030B000F6D30B4A02E0002342F8043B094B9A4244
:1030C000F9D3FFF7C3FF00F017F8FFF755FE70477D
:1030D00000800120604000080000002084000020E3
:1030E0008400002040030020FEE70000014B186828
:1030F000704700BF2000002070B50D4E0D4CA41B82
:10310000A4100025A54209D10B4E0C4C00F004FF81
:10311000A41BA4100025A54205D170BD56F825308A
:1031200098470135EEE756F8253098470135F2E724
:103130005840000858400008584000085C4000080B
:1031400002440346934200D1704703F8011BF9E79C
:103150000FB40A4B13B51C6824B1A36913B92046F8
:1031600000F04EF805AB049AA1680193204600F0E8
:1031700055F902B0BDE8104004B0704720000020AF
:10318000002310B50446C0E90033836081814366A3
:10319000C281C0E904338361194608225C30FFF71D
:1031A000CFFF054B6362054BA362054BE362054B02
:1031B0002462236310BD00BF793900089B390008E1
:1031C000D3390008F7390008014900F085B800BF7D
:1031D000D13C000870B54A1E682555430E4605F1DE
:1031E000740100F097F8044640B10021C0E90016D0
:1031F0000C30A06005F16802FFF7A2FF204670BD09
:10320000836910B5044633BBC0E912330365124B22
:10321000124A1B688262984204BF0123836100F056
:103220001FF86060204600F01BF8A060204600F008
:1032300017F80022E06004216068FFF7A1FF012277
:103240000921A068FFF79CFF02221221E068FFF726
:1032500097FF0123A36110BDB83F0008C9310008E2
:10326000F8B51B4B1E68B369074613B93046FFF724
:10327000C7FF4836D6E90134013B03D5336833B183
:103280003668F7E7B4F90C506DB16834F4E70421FF
:103290003846FFF79FFF30600028F1D10C233B60D8
:1032A00004462046F8BD0B4B6566C4E90055A56091
:1032B000C4E90335C4E905550822294604F15C0038
:1032C000FFF73EFFC4E90D55C4E91255E9E700BF19
:1032D000B83F00080100FFFF2DE9F843804689460A
:1032E00000F14804002614B93046BDE8F883D4E95B
:1032F0000175013F01D52468F5E7AB89012B07D99A
:10330000B5F90E30013303D029464046C84706437D
:103310006835EEE770B5CD1C25F0030508350C2D9A
:1033200038BF0C25002D064601DBA94203D90C232A
:103330003360002070BD00F06BFD214A1468214607
:1033400091B9204C23681BB9304600F005FB206082
:103350002946304600F000FB431C24D10C23336087
:10336000304600F056FDE4E70B685B1B18D40B2BCE
:103370000FD90B60CD50CC18304600F04AFD04F157
:103380000B00231D20F00700C31AD3D05A42E2508D
:10339000D0E78C424B6816BF636013600C46EBE7C6
:1033A0000C464968CCE7C41C24F00304A04205D0B5
:1033B000211A304600F0D0FA0130CFD02560DBE78B
:1033C0006C020020700200209368013B002B10B4B7
:1033D000936008DA9469A34201DB0A2903D15DF8FE
:1033E000044B00F00DBB1368581C106019700846A0
:1033F0005DF8044B7047F8B506460F461446D518DD
:10340000AC4201D1002007E03A4614F8011B3046D7
:10341000FFF7DAFF431CF3D1F8BD00002DE9F04FB0
:103420000C469DB017461D46064618B183690BB978
:10343000FFF7E6FE7C4B9C4258D17468A3891807BD
:103440005ED52369002B5BD00023099320238DF8E0
:10345000293030238DF82A3003954FF0010BB84600
:10346000454615F8013B0BB1252B54D1B8EB070AA3
:103470000BD053463A4621463046FFF7BCFF013099
:1034800000F0C280099B5344099398F80030002B48
:1034900000F0BA8000234FF0FF32CDE905230493FA
:1034A00007938DF853301A93A846052218F8011B8C
:1034B0005E48FDF715F8049B78BBD90644BF20226F
:1034C0008DF853201A0744BF2B228DF853202A78F9
:1034D0002A2A2AD0079AA84600200A25414611F830
:1034E000013B303B092B69D960B324E0504B9C422F
:1034F00001D1B468A2E74F4B9C4208BFF4689DE736
:103500002146304600F0E0FA00289DD04FF0FF3011
:103510001DB0BDE8F08FA846A2E7444A801A0BFA16
:1035200000F0184304904546BEE7039A111D126847
:103530000391002A01DB079204E0524243F00203A8
:103540000792049398F800302E2B0ED198F8013092
:103550002A2B38D1039B1A1D1B680392002BB8BF7E
:103560004FF0FF3308F102080593334D98F800102F
:1035700003222846FCF7B4FF40B14023401B03FA66
:1035800000F0049B034308F10108049398F800102D
:103590002A488DF82810062208F10107FCF7A0FF41
:1035A000002837D0264B1BBB039B073323F00703B0
:1035B00008330393099B4B44099350E705FB023200
:1035C000012088468AE7002308F10108059319467F
:1035D0000A25404610F8012B303A092A03D9002B5E
:1035E000C3D00591C1E705FB012101238046F0E727
:1035F00003AB00932246134B04A93046AFF300807F
:10360000B0F1FF3F8146D5D1A3895B063FF57EAF80
:1036100009987DE703AB009322460A4B04A9304684
:1036200000F088F8ECE700BFDC3F00081C40000811
:10363000FC3F0008BC3F000822400008264000086C
:1036400000000000F73300082DE9F04791461F46BF
:103650008A680B69DDF820809342B8BF1346C9F829
:10366000003091F8432006460C4612B10133C9F8E8
:1036700000302368990642BFD9F800300233C9F8F8
:103680000030256815F0060507D104F1190AE36832
:10369000D9F800209B1AAB4228DC94F8433022680A
:1036A000003318BF012392062DD404F1430239469A
:1036B0003046C047013020D02368E568D9F80020A3
:1036C00003F00603042B08BFAD1AA36822690CBFE0
:1036D00025EAE57500259342C4BF9B1AED184FF00B
:1036E00000091A344D451AD1002008E00123524642
:1036F00039463046C047013003D14FF0FF30BDE8B6
:10370000F0870135C3E7E1185A1C302081F84300E7
:10371000224494F8451082F843100233C5E7012390
:10372000224639463046C0470130E6D009F101094A
:10373000D8E700002DE9F04301F1430C0C46097E67
:1037400085B06E291746064698460C9A00F0B3805D
:1037500022D8632936D00AD8002900F0B980582928
:1037600000F0838004F1420584F8421032E06429BD
:1037700001D06929F6D120681368050603F1040118
:103780002AD51B681160002B03DA2D225B4284F8D6
:1037900043206F480A2239E0732900F09D8008D841
:1037A0006F2920D07029DDD1236843F020032360E6
:1037B00003E0752917D07829D4D1782384F84530CF
:1037C000644855E01368191D1B68116004F1420537
:1037D00084F8423001238CE01B68116010F0400F28
:1037E00018BF1BB2CFE713682568181D10602806A4
:1037F00001D51B6802E06806FBD51B8854486F2979
:1038000014BF0A220822002184F843106568A560CD
:10381000002DC0F29580216821F004012160002B69
:103820003DD1002D40F08E806546082A0BD12368DB
:10383000DB0708D5236962689A42DEBF302305F8AA
:10384000013C05F1FF35ACEB05032361CDF80080A9
:103850003B4603AA21463046FFF7F6FE01304DD124
:103860004FF0FF3005B0BDE8F083394884F84510CB
:10387000136821681D1D1B6815600A060BD5CA0751
:1038800044BF41F0200121601BB9226822F02002D0
:1038900022601022B7E74D0648BF9BB2EFE76546AE
:1038A000B3FBF2F102FB1133C35C05F8013D0B469B
:1038B0000029F5D1B9E7136825686169181D106002
:1038C00028061B6801D5196002E06A06FBD519803D
:1038D000002323616546B9E71368191D11601D684F
:1038E000626800212846FCF7FBFD08B1401B6060C0
:1038F00063682361002384F84330A7E723692A46DD
:1039000039463046C0470130AAD023689B0713D4FC
:10391000E068039B9842B8BF1846A3E701234A46D4
:1039200039463046C04701309AD00135E368039AE2
:103930009B1AAB42F2DCEBE7002504F11909F5E72D
:10394000002BACD1037884F8423004F142056CE7D7
:103950002D4000083E40000838B5064C00230546BF
:1039600008462360FFF748FB431C02D1236803B1DC
:103970002B6038BD3C03002010B50C46B1F90E1089
:1039800000F096FA0028ABBF636DA3891B1823F4DF
:103990008053ACBF6365A38110BD2DE9F0411F4684
:1039A0008B89DB0505460C46164605D50223002209
:1039B000B1F90E1000F0B6F9A389B4F90E1023F492
:1039C0008053A38132463B462846BDE8F04100F0D3
:1039D00069B810B50C46B1F90E1000F0A3F9431CFC
:1039E000A38915BF606523F4805343F48053A381FA
:1039F00018BFA38110BDB1F90E1000F0D3B80000BC
:103A0000F8B50E461446054618B183690BB9FFF7A1
:103A1000F7FB214B9C422AD16C68A369A360A38960
:103A20001A072ED5236963B323692068C01A636916
:103A3000F6B28342374604DC2146284600F048F9B6
:103A400028BBA368013BA36023685A1C22601E7038
:103A500063690130834204D0A389DB0719D50A2E9C
:103A600017D12146284600F033F990B10FE00B4BF7
:103A70009C4201D1AC68D0E7094B9C4208BFEC687E
:103A8000CBE72146284600F01FF80028CCD04FF0A5
:103A9000FF373846F8BD00BFDC3F0008FC3F000898
:103AA000BC3F000838B5074C0546084611460022C1
:103AB00022601A46FFF798F8431C02D1236803B12D
:103AC0002B6038BD3C030020324B70B51D680646A4
:103AD0000C4625B1AB6913B92846FFF791FB2E4B75
:103AE0009C420FD16C68B4F90C309AB215072CD4F3
:103AF000D00611D40922326043F04003A3814FF075
:103B0000FF303EE0254B9C4201D1AC68EBE7244BF3
:103B10009C4208BFEC68E6E7510712D5616B41B1E2
:103B200004F14403994202D0304600F073F90023B7
:103B30006363A38923F02403A381002363602369C3
:103B40002360A38943F00803A38123694BB9A389A8
:103B500003F42073B3F5007F03D02146304600F014
:103B600017F9A28912F001030CD00023A360636946
:103B70005B42A361236953B9B4F90C3013F08000A0
:103B8000BAD170BD920758BF6369A360F2E7002005
:103B9000F7E700BF20000020DC3F0008FC3F0008E2
:103BA000BC3F000838B5064C002305460846236094
:103BB000FFF740FA431C02D1236803B12B6038BDE4
:103BC0003C0300208A892DE9F041054610070C4688
:103BD00058D44B68002B05DC0B6C002B02DC00205A
:103BE000BDE8F081E66A002EF9D0002312F480527D
:103BF0002F68216A2B6032D0606DA3895A0705D5E2
:103C00006368C01A636B0BB1236CC01A00230246B1
:103C1000E66A216A2846B047431CA38906D1296871
:103C20001D2948D8294ACA40D60744D500226260D7
:103C3000D9042269226004D5421C01D12B6803B942
:103C40006065616B2F600029C9D004F1440399427B
:103C500002D0284600F0DEF800206063C0E70123B0
:103C60002846B047411CC8D12B68002BC5D01D2B5E
:103C700001D0162B01D12F60B1E7A38943F0400397
:103C8000A381ADE70F69002FA9D093070E6808BF85
:103C90004B690F6018BF0023A6EB07088B60B8F1D3
:103CA000000F9CDD43463A46216AA66A2846B04783
:103CB000002806DCA38943F04003A3814FF0FF30C6
:103CC0008EE70744A8EB0008E9E700BF01004020A9
:103CD00038B50B6905460C46DBB118B183690BB9E1
:103CE000FFF78EFA0C4B9C4209D16C68B4F90C308A
:103CF0007BB121462846BDE83840FFF763BF074B3C
:103D00009C4201D1AC68F1E7054B9C4208BFEC68CE
:103D1000ECE7002038BD00BFDC3F0008FC3F000896
:103D2000BC3F000838B5074C05460846114600223E
:103D300022601A46FFF788F9431C02D1236803B1B9
:103D40002B6038BD3C03002070B50E46B1F90E1053
:103D5000002996B014461D4607DA00232B60B3896C
:103D60001A0610D44FF480630EE06A4600F0B2F8F1
:103D70000028F2DB019A02F47042A2F500535A4285
:103D80005A412A60EEE740230020236016B070BD40
:103D90008B8973B59D0706460C4607D504F147038A
:103DA000236023610123636102B070BD01AB6A46E9
:103DB000FFF7CAFF009905463046FFF7ABFA48B94E
:103DC000B4F90C309A05EFD423F0030343F0020357
:103DD000A381E3E70D4BB362A389206043F0800326
:103DE000A381009B6361019B20615BB1B4F90E105C
:103DF000304600F081F828B1A38923F0030343F093
:103E00000103A381A3891D43A581CDE7C931000822
:103E10007047704738B50546002945D051F8043C35
:103E20000C1F002BB8BFE418FFF7F2FF1F4A1368FE
:103E3000104633B9636014602846BDE83840FFF788
:103E4000E8BFA3420CD921686218934204BF1A68E4
:103E50005B68636004BF521822600460ECE713469D
:103E60005A680AB1A242FAD919685818A0420BD16F
:103E700020680144581882421960DDD110685268E8
:103E80005A6001441960D7E702D90C232B60D3E7AD
:103E9000206821188A4204BF11685268626004BF1A
:103EA000091821605C60C7E738BD00BF6C020020C4
:103EB00038B5074C054608461146002222601A46CE
:103EC000FFF78CF8431C02D1236803B12B6038BD87
:103ED0003C03002038B5074C002305460846114630
:103EE0002360FFF7AAF8431C02D1236803B12B60BB
:103EF00038BD00BF3C03002038B5064C0023054602
:103F000008462360FFF79EF8431C02D1236803B1E3
:103F10002B6038BD3C030020F8B500BFF8BC08BCDE
:103F20009E467047F8B500BFF8BC08BC9E46704777
:103F30000006101600061016000000000000000029
:103F4000010203040607080900000000010203043F
:103F500048414C5F554152545F456D756C5F4572E9
:103F6000726F7243616C6C6261636B0A0D000000DA
:103F7000527820436F6D706C657465210A0D0000E6
:103F8000547820436F6D706C657465210A0D0000D4
:103F90004572726F725F48616E646C65720A0D00E3
:103FA000496E6974204F4B200A0D00005245533A68
:103FB00025730A0D0000000024000020000000000E
:103FC00000000000000000000000000000000000F1
:103FD00000000000000000000000000000000000E1
:103FE00000000000000000000000000000000000D1
:103FF00000000000000000000000000000000000C1
:1040000000000000000000000000000000000000B0
:10401000000000000000000000000000232D302BF5
:104020002000686C4C0065666745464700303132B9
:104030003334353637383941424344454600303110
:10404000323334353637383961626364656600006F
:08405000C0C1FF7F0100000068
:04405800C501000896
:04405C00A1010008B6
:104060000100000010000000536F6674205561725B
:10407000742054657374210A0D0000000024F400BC
:104080002400002000000000DC3F0008FC3F000886
:10409000BC3F00080000000000000000000000001D
:1040A0000000000000000000000000000000000010
:1040B0000000000000000000000000000000000000
:1040C00000000000000000000000000000000000F0
:1040D00000000000000000000000000000000000E0
:0440E00000000000DC
:040000050800309926
:00000001FF
